:100000000C9463000C948B000C948B000C948B006C
:100010000C948B000C948B000C948B000C948B0034
:100020000C948B000C948B000C948B000C948B0024
:100030000C948B000C948B000C948B000C948B0014
:100040000C94F7040C948B000C94C5040C949F043E
:100050000C948B000C948B000C948B000C948B00F4
:100060000C948B000C948B000000000024002700EF
:100070002A0000000000250028002B0000000000DE
:1000800023002600290004040404040404040202DA
:100090000202020203030303030301020408102007
:1000A0004080010204081020010204081020000012
:1000B0000008000201000003040700000000000027
:1000C00000004105460811241FBECFEFD8E0DEBF77
:1000D000CDBF22E0A2E4B1E001C01D92AF37B2076C
:1000E000E1F711E0A0E0B1E0E6E1F5E102C0059042
:1000F0000D92A234B107D9F710E0C2E6D0E004C0F7
:100100002197FE010E948608C136D107C9F70E94D7
:1001100040060C947E0A0C94000096E0899FD00162
:100120001124AC50BE4F90967C936E935F9791E0F4
:1001300091969C939197E0916102F0916202909167
:100140006002992339F0309751F0811108C08091F5
:1001500010020994309719F05C968C91FACF0895AB
:10016000AF92BF92CF92DF92EF92FF920F931F93C5
:10017000CF93DF936C017B018B01040F151FEB0103
:100180005E01AE18BF08C017D10759F06991D601BA
:10019000ED91FC910190F081E02DC6010995892B2C
:1001A00079F7C501DF91CF911F910F91FF90EF90EB
:1001B000DF90CF90BF90AF900895FC01538D448D98
:1001C000252F30E0842F90E0821B930B541710F002
:1001D000CF96089501970895FC01918D828D98170F
:1001E00061F0A28DAE0FBF2FB11D5D968C91928DE7
:1001F0009F5F9F73928F90E008958FEF9FEF089518
:10020000FC01918D828D981731F0828DE80FF11DE0
:10021000858D90E008958FEF9FEF0895FC01918DFB
:10022000228D892F90E0805C9F4F821B91098F73F4
:100230009927089581E591E00E940E0121E0892B24
:1002400009F420E0822F089580E090E0892B29F0C6
:100250000E941A0181110C9400000895FC01A48DE4
:10026000A80FB92FB11DA35ABF4F2C91848D90E0D8
:1002700001968F739927848FA689B7892C93A089BB
:10028000B1898C91837080648C93938D848D981345
:1002900006C00288F389E02D80818F7D80830895D8
:1002A000EF92FF920F931F93CF93DF93EC0181E0C6
:1002B000888F9B8D8C8D98131AC0E889F98980816D
:1002C00085FF15C09FB7F894EE89FF896083E889A0
:1002D000F98980818370806480839FBF81E090E092
:1002E000DF91CF911F910F91FF90EF900895F62E1F
:1002F0000B8D10E00F5F1F4F0F731127E02E8C8DB9
:100300008E110CC00FB607FCFACFE889F9898081FD
:1003100085FFF5CFCE010E942E01F1CFEB8DEC0FC2
:10032000FD2FF11DE35AFF4FF0829FB7F8940B8F1A
:10033000EA89FB8980818062CFCFCF93DF93EC0184
:10034000888D8823B9F0AA89BB89E889F9898C91BD
:1003500085FD03C0808186FD0DC00FB607FCF7CF79
:100360008C9185FFF2CF808185FFEDCFCE010E9479
:100370002E01E9CFDF91CF910895833081F028F4E9
:10038000813099F08230A9F008958730A9F0883043
:10039000C9F08430B1F4809180008F7D03C08091DA
:1003A00080008F7780938000089584B58F7784BD17
:1003B000089584B58F7DFBCF8091B0008F778093B7
:1003C000B00008958091B0008F7DF9CFCF93DF9377
:1003D000282F30E0F901E255FF4F8491F901E656EC
:1003E000FF4FD491F901EA57FF4FC491CC23A1F0FC
:1003F00081110E94BD01EC2FF0E0EE0FFF1FE458C9
:10040000FF4FA591B491EC91ED2381E090E009F4C8
:1004100080E0DF91CF91089580E090E0FACF862FC1
:100420000C94E6011F93CF93DF93282F30E0F9015E
:10043000E255FF4F8491F901E656FF4FD491F9013F
:10044000EA57FF4FC491CC23A9F0162F81110E94C7
:10045000BD01EC2FF0E0EE0FFF1FEE58FF4FA5910E
:10046000B4918FB7F894EC91111108C0D095DE23A8
:10047000DC938FBFDF91CF911F910895DE2BF8CFD2
:10048000862F642F0C941202CF93DF9390E0FC012F
:10049000E656FF4F24918A579F4FFC018491882391
:1004A000C9F090E0880F991FFC01E859FF4FA59112
:1004B000B491FC01EE58FF4FC591D49161110DC06C
:1004C0009FB7F8948C91209582238C938881282360
:1004D00028839FBFDF91CF910895623051F49FB779
:1004E000F8943C91822F809583238C93E8812E2B66
:1004F000EFCF8FB7F894EC912E2B2C938FBFEACFD0
:10050000862F642F0C9444023FB7F89480914701E2
:1005100090914801A0914901B0914A0126B5A89B4C
:1005200005C02F3F19F00196A11DB11D3FBFBA2F85
:10053000A92F982F8827BC01CD01620F711D811D45
:10054000911D42E0660F771F881F991F4A95D1F7CA
:1005500008958F929F92AF92BF92CF92DF92EF92C7
:10056000FF926B017C010E9484024B015C01C1146B
:10057000D104E104F104B9F00E94840268197909F8
:100580008A099B09683E73408105910580F321E04B
:10059000C21AD108E108F10888EE880E83E0981E9F
:1005A000A11CB11CE4CFFF90EF90DF90CF90BF90E3
:1005B000AF909F908F9008952FB7F894609143016A
:1005C0007091440180914501909146012FBF08959B
:1005D0000F931F93CF93DF93C82FD62F86E0C89F2A
:1005E000F0011124EC50FE4F11A2878D90A18130B3
:1005F0009105F1F058F082309105F1F1039709F47B
:1006000040C0DF91CF911F910F9108956623C9F3E8
:1006100061E070E08C2F0E948D000E94DC026093EC
:100620004C0270934D0280934E0290934F02E9CF9B
:100630000E94DC0200914C0210914D0220914E026A
:1006400030914F02AB01BC01401B510B620B730B8D
:1006500080915E0290915F02B0E0A0E08417950760
:10066000A607B70748F462E070E08C2FDF91CF91C6
:100670001F910F910C948D0063E070E0D111C1CFF8
:10068000F4CF70E060E0F1CF089590E080E008954D
:10069000CF93DF93EC0160E08E810E94120261E053
:1006A0008E810E94120260E08E810E9412028BE80D
:1006B00091E00197F1F7DF91CF910895CF92DF920A
:1006C000EF92FF920F931F93CF93DF936C017C0106
:1006D00087E0E80EF11CD0E0C0E0062F10E0B80182
:1006E0000C2E02C0759567950A94E2F76170F701C8
:1006F00081917F010E9412022196C430D10579F7C1
:10070000C601DF91CF911F910F91FF90EF90DF9085
:10071000CF900C944803CF92DF92EF92FF920F9309
:100720001F93CF93DF93EC01F62E642F8C810E94F0
:1007300012028D818F3F19F060E00E9412020F2D8E
:1007400010E08F8584FF25C06E0187E0C80ED11CA4
:10075000F12CE12CB8010E2C02C0759567950A9416
:10076000E2F76170F60181916F010E941202FFEFC2
:10077000EF1AFF0A88E0E816F10461F7CE01DF9175
:10078000CF911F910F91FF90EF90DF90CF900C943D
:100790004803B80184E0759567958A95E1F7CE0125
:1007A0000E945E036F2DCE01DF91CF911F910F91BB
:1007B000FF90EF90DF90CF900C945E03CF93DF9388
:1007C000823029F490917202986090937202809323
:1007D00076021092770280E48093780280E1809321
:1007E000790280E580937A0261E0809167020E943D
:1007F0004402809168028F3F19F061E00E94440238
:1008000061E0809169020E944402C3E6D2E09E0149
:10081000235632408091720284FD0BC084E090E048
:1008200021962817390744F461E08E810E94440222
:10083000EECF88E090E0F4CF8BE39DE00197F1F7F5
:1008400060E0809167020E94120260E0809169027C
:100850000E941202809168028F3F19F060E00E94AE
:1008600012026091720264FD45C063E083E692E08B
:100870000E945E03CBE4D6E4CE010197F1F763E07A
:1008800083E692E00E945E032197F1F763E083E63E
:1008900092E00E945E0383E592E00197F1F762E047
:1008A00083E692E00E945E0360917202606240E023
:1008B00083E692E00E948B0384E08093730240E021
:1008C0006CE083E692E00E948B0340E061E083E607
:1008D00092E00E948B038BE39FE10197F1F782E0A6
:1008E0008093740240E066E083E692E0DF91CF916E
:1008F0000C948B03606240E083E692E00E948B03DD
:100900008BE496E40197F1F760917202606240E037
:1009100083E692E00E948B0383E592E00197F1F772
:1009200060917202606240E083E692E00E948B0375
:10093000BBCF41E00E948B0381E090E008951F92BD
:100940000F920FB60F9211242F933F934F935F9303
:100950006F937F938F939F93AF93BF93EF93FF9387
:1009600081E591E00E942E01FF91EF91BF91AF913F
:100970009F918F917F916F915F914F913F912F91B7
:100980000F900FBE0F901F9018951F920F920FB6E9
:100990000F9211242F938F939F93EF93FF93E091E6
:1009A0006101F09162018081E0916701F09168013D
:1009B00082FD1BC0908180916A018F5F8F732091AF
:1009C0006B01821741F0E0916A01F0E0EF5AFE4FAF
:1009D000958F80936A01FF91EF919F918F912F9155
:1009E0000F900FBE0F901F9018958081F4CF1F922B
:1009F0000F920FB60F9211242F933F938F939F93D3
:100A0000AF93BF938091430190914401A091450120
:100A1000B09146013091420123E0230F2D3758F564
:100A20000196A11DB11D2093420180934301909333
:100A30004401A0934501B0934601809147019091F4
:100A40004801A0914901B0914A010196A11DB11D33
:100A50008093470190934801A0934901B0934A01C4
:100A6000BF91AF919F918F913F912F910F900FBEAA
:100A70000F901F90189526E8230F0296A11DB11D17
:100A8000D2CF109254011092530188EE93E0A0E06F
:100A9000B0E08093550190935601A0935701B09315
:100AA00058018DE191E0909352018093510185ECC2
:100AB00090E090935E0180935D0184EC90E09093D0
:100AC000600180935F0180EC90E0909362018093DD
:100AD000610181EC90E0909364018093630182EC6A
:100AE00090E0909366018093650186EC90E090938E
:100AF00068018093670110926A0110926B01109255
:100B00006C0110926D01109266021092650289E3E9
:100B100091E090936402809363028EE08093670279
:100B20008FEF809368028FE08093690280E1809369
:100B30006A0281E180936B0282E180936C0283E11F
:100B400080936D0210926E0210926F0210927002EA
:100B5000109271021092720281E00E94DE031092E4
:100B6000F6011092FA011092F9011092FB018FE246
:100B700091E09093F5018093F401E0E1F2E08CE4E0
:100B800092E0108214821382158236968E179F0788
:100B9000C1F783E091E0909357028093560280E082
:100BA00091E0909359028093580284E080935A0216
:100BB00083E080935B0287E091E0909355028093FD
:100BC00054028AE090E090935D0280935C0284EF8F
:100BD00091E090935F0280935E0210926202109205
:100BE0006102109250021092510210925202109221
:100BF0005302109260021092EF011092EE011092D7
:100C0000F1011092F0011092F3011092F20161E0F3
:100C100070E090E080E00E94B1090097E1F09093CD
:100C2000EF018093EE011092F1011092F0012091FA
:100C3000F2013091F301232B11F4FC011082109288
:100C4000F3011092F20161E471E08091EE01909164
:100C5000EF010C94770A8091EE019091EF010097DB
:100C600011F00E9428091092EF011092EE011092EB
:100C7000F3011092F2011092F1011092F001089527
:100C8000789484B5826084BD84B5816084BD85B567
:100C9000826085BD85B5816085BD80916E00816073
:100CA00080936E0010928100809181008260809319
:100CB000810080918100816080938100809180001B
:100CC0008160809380008091B10084608093B10046
:100CD0008091B00081608093B00080917A00846040
:100CE00080937A0080917A00826080937A0080916C
:100CF0007A00816080937A0080917A008068809386
:100D00007A001092C10061E08BE00E94440261E031
:100D10008AE00E944402E0916101F091620182E068
:100D20008083E0915D01F0915E011082E0915F01AE
:100D3000F09160018FEC808310926901E091650170
:100D4000F091660186E08083E0916301F091640197
:100D5000808180618083E0916301F09164018081F2
:100D600088608083E0916301F091640180818068F4
:100D70008083E0916301F091640180818F7D8083A5
:100D800082E00E94DE03212C312C210123940E9459
:100D9000DC024B0121E0209360020E94DC02009102
:100DA0005002109151022091520230915302AB0136
:100DB000BC01401B510B620B730B80915C02909144
:100DC0005D02B0E0A0E084179507A607B70708F01A
:100DD00011C1C0E080915A02C81760F4E091560238
:100DE000F0915702EC0FF11D62E080810E944402F5
:100DF000CF5FF0CF712C80915B02781608F05FC056
:100E0000072D10E0E0915802F0915902E00FF11F18
:100E100061E080810E944402E0915802F091590201
:100E2000E00FF11F60E080810E941202D201C10137
:100E3000072C04C0880F991FAA1FBB1F0A94D2F762
:100E40006C017C01E094F094612C80915A02681648
:100E5000F8F4C62DD0E0E0915602F0915702EC0F65
:100E6000FD1F80810E94E6012496CC0FDD1FCC502F
:100E7000DE4F892B41F4888199818C299D299983A2
:100E800088836394E2CF888199818E219F21F7CF57
:100E9000E0915802F0915902E00FF11F61E080816A
:100EA0000E9412028091580290915902080F191F56
:100EB00060E0F80180810E94440273949CCFC4EFEB
:100EC000D1E0FE01878D90A1892B31F4148E2FEF94
:100ED0003FEF368F258F11A2369632E0E033F307CD
:100EE00089F710E080915A02181708F053C000E00B
:100EF000812F90E0880F991FFC01E450FE4F7F0185
:100F000020915B02021708F043C0F70160817181F4
:100F1000002E02C0769567950A94E2F7129F900121
:100F20001124200F311DE4EFF1E080E0458D568D56
:100F30002417350709F4A8C08F5F36968A30B1F7B9
:100F400060FF24C0E4EFF1E090E080E0448D4111C7
:100F500018C0E0915402F0915502E20FF31F608136
:100F600046E0489FF001499FF00D1124EC50FE4FE0
:100F7000648F368F258F10A2178E61E00E94E802E1
:100F800005C0019636968A30910501F70F5FB8CFFC
:100F90001F5FA8CF10E089A18111182F269682E04B
:100FA000C033D807C1F70E94DC02609350027093EF
:100FB000510280935202909353021123D9F08091F1
:100FC00015028823B9F080911302909114020197C1
:100FD00089F410911002111110C020E030E0232B91
:100FE00009F4D5CE0E941A01882309F4D0CE0E94BC
:100FF0000000CDCE10926002F0CF41E0612F83E679
:1010000092E00E948B0380914F0190915001EAE0A1
:10101000E89FE001E99FD00D1124C10FD11D17FDFC
:10102000DA95E097D0935001C0934F01D0934E01D1
:10103000C0934D0108EB1BE00C1B1D0B10934C01E2
:1010400000934B01F9EE8F16F3E09F0634F261E056
:101050008BE00E941202BE01DD0F880B990B0E94EB
:10106000A90260E08BE00E94120261E08AE00E9427
:101070001202B801110F880B990B0E94A90260E0BF
:101080008AE00E941202A9CF617078CF8091EE01B0
:101090009091EF01009711F00C94280908952F9278
:1010A0003F924F925F926F927F928F929F92AF92F8
:1010B000BF92CF92DF92EF92FF920F931F93CF9345
:1010C000DF93CDB7DEB7CA1BDB0B0FB6F894DEBFDC
:1010D0000FBECDBF09942A88398848885F846E8402
:1010E0007D848C849B84AA84B984C884DF80EE804C
:1010F000FD800C811B81AA81B981CE0FD11D0FB655
:10110000F894DEBF0FBECDBFED010895EE0FFF1FB7
:101110000590F491E02D09940F931F93CF93DF93E3
:101120008230910510F482E090E0E0917D02F09130
:101130007E0230E020E0B0E0A0E0309799F4211585
:10114000310509F44AC0281B390B24303105D8F584
:101150008A819B816115710589F1FB0193838283EB
:10116000FE0111C040815181028113814817590746
:10117000E0F04817590799F4109761F012960C9314
:10118000129713961C933296CF01DF91CF911F9146
:101190000F91089500937D0210937E02F4CF2115E4
:1011A000310551F04217530738F0A901DB019A01CC
:1011B000BD01DF01F801C1CFEF01F9CF90937E02AD
:1011C00080937D02CDCFFE01E20FF31F81939193B7
:1011D0002250310939832883D7CF20917B02309167
:1011E0007C02232B41F4209115013091160130939C
:1011F0007C0220937B022091130130911401211570
:10120000310541F42DB73EB74091170150911801B7
:10121000241B350BE0917B02F0917C02E217F3076F
:10122000A0F42E1B3F0B2817390778F0AC014E5F56
:101230005F4F2417350748F04E0F5F1F50937C0215
:1012400040937B02819391939FCFF0E0E0E09CCFAD
:10125000CF93DF930097E9F0FC013297138212825B
:10126000A0917D02B0917E02ED0130E020E0109768
:10127000A1F420813181820F931F20917B02309154
:101280007C022817390709F061C0F0937C02E093D3
:101290007B02DF91CF910895EA01CE17DF07E8F5D1
:1012A0004A815B819E0141155105B1F7E901FB833C
:1012B000EA8349915991C40FD51FEC17FD0761F4DA
:1012C000808191810296840F951FE901998388831B
:1012D000828193819B838A83F0E0E0E012968D9176
:1012E0009C9113970097B9F52D913C911197CD01E1
:1012F0000296820F931F20917B0230917C02281767
:10130000390739F6309751F510927E0210927D021E
:10131000B0937C02A0937B02BCCFD383C283408175
:101320005181840F951FC817D90761F44E5F5F4F35
:1013300088819981480F591F518340838A819B81FD
:10134000938382832115310509F0B0CFF0937E029B
:10135000E0937D029ECFFD01DC01C0CF138212829B
:10136000D7CFB0E0A0E0E7EBF9E00C9451088C0196
:10137000009751F4CB010E948C088C01C801CDB7B5
:10138000DEB7E0E10C946D08FC01E60FF71F9C014D
:1013900022503109E217F30708F49DC0D901CD911D
:1013A000DC911197C617D70798F0C530D10530F3F7
:1013B000CE0104978617970708F3C61BD70B229711
:1013C000C193D1936D937C93CF010E942809D6CF0E
:1013D0005B01AC1ABD0A4C018C0E9D1EA0917D02D2
:1013E000B0917E02512C412CF12CE12C109731F55B
:1013F00080917B0290917C028815990509F05CC070
:101400004616570608F058C08091130190911401B8
:10141000009741F48DB79EB7409117015091180184
:10142000841B950BE817F90708F055C0F0937C0270
:10143000E0937B02F90171836083A0CF8D919C9131
:10144000119712966C90129713967C901397A8158B
:10145000B90559F56C0142E0C40ED11CCA14DB0475
:1014600020F1AC014A195B09DA011296159780F058
:101470006282738251834083D9016D937C93E1141E
:10148000F10471F0D7011396FC93EE93129776CF87
:1014900022968C0F9D1FF90191838083F301EFCF7A
:1014A000F0937E02E0937D0269CF4816590608F456
:1014B0002C017D01D3019ACFCB010E948C087C01C5
:1014C000009749F0AE01B8010E946E0AC8010E945F
:1014D0002809870153CF10E000E050CFFB01DC0169
:1014E00002C001900D9241505040D8F70895FB0181
:1014F000DC0101900D920020E1F7089510E0C2E6B2
:10150000D0E004C0FE010E9486082196C336D107B0
:06151000C9F7F894FFCFBB
:1015160008070605040302373838343536313233C6
:101526002A302300007F028000000000005001B036
:1015360000DD009D010E01EC0000010000000080AE
:101546000240020F02000000009904B00045034467
:02155600030090
:00000001FF
